{
  "contractName": "DocumentFactory",
  "abi": [
    {
      "anonymous": false,
      "inputs": [
        {
          "indexed": false,
          "name": "docId",
          "type": "uint256"
        },
        {
          "indexed": false,
          "name": "documentHash",
          "type": "address"
        },
        {
          "indexed": false,
          "name": "name",
          "type": "string"
        },
        {
          "indexed": false,
          "name": "url",
          "type": "string"
        }
      ],
      "name": "DocumentCreated",
      "type": "event",
      "signature": "0x63d8dde1e374a130850ff7aef01122ac6b068a36da6d17a03462dc10d9e906a3"
    },
    {
      "constant": false,
      "inputs": [
        {
          "name": "_documentHash",
          "type": "address"
        },
        {
          "name": "_name",
          "type": "string"
        },
        {
          "name": "_url",
          "type": "string"
        }
      ],
      "name": "createDocument",
      "outputs": [],
      "payable": false,
      "stateMutability": "nonpayable",
      "type": "function",
      "signature": "0x3cf51bb3"
    }
  ],
  "bytecode": "0x608060405234801561001057600080fd5b5061056a806100206000396000f3fe608060405260043610610041576000357c0100000000000000000000000000000000000000000000000000000000900463ffffffff1680633cf51bb314610046575b600080fd5b34801561005257600080fd5b506101c36004803603606081101561006957600080fd5b81019080803573ffffffffffffffffffffffffffffffffffffffff169060200190929190803590602001906401000000008111156100a657600080fd5b8201836020820111156100b857600080fd5b803590602001918460018302840111640100000000831117156100da57600080fd5b91908080601f016020809104026020016040519081016040528093929190818152602001838380828437600081840152601f19601f8201169050808301925050505050505091929192908035906020019064010000000081111561013d57600080fd5b82018360208201111561014f57600080fd5b8035906020019184600183028401116401000000008311171561017157600080fd5b91908080601f016020809104026020016040519081016040528093929190818152602001838380828437600081840152601f19601f8201169050808301925050505050505091929192905050506101c5565b005b6000600160006060604051908101604052808773ffffffffffffffffffffffffffffffffffffffff168152602001868152602001858152509080600181540180825580915050906001820390600052602060002090600302016000909192909190915060008201518160000160006101000a81548173ffffffffffffffffffffffffffffffffffffffff021916908373ffffffffffffffffffffffffffffffffffffffff160217905550602082015181600101908051906020019061028b929190610499565b5060408201518160020190805190602001906102a8929190610499565b505050039050336001600083815260200190815260200160002060006101000a81548173ffffffffffffffffffffffffffffffffffffffff021916908373ffffffffffffffffffffffffffffffffffffffff1602179055506001600260003373ffffffffffffffffffffffffffffffffffffffff1673ffffffffffffffffffffffffffffffffffffffff168152602001908152602001600020600082825401925050819055507f63d8dde1e374a130850ff7aef01122ac6b068a36da6d17a03462dc10d9e906a381858585604051808581526020018473ffffffffffffffffffffffffffffffffffffffff1673ffffffffffffffffffffffffffffffffffffffff1681526020018060200180602001838103835285818151815260200191508051906020019080838360005b838110156103ef5780820151818401526020810190506103d4565b50505050905090810190601f16801561041c5780820380516001836020036101000a031916815260200191505b50838103825284818151815260200191508051906020019080838360005b8381101561045557808201518184015260208101905061043a565b50505050905090810190601f1680156104825780820380516001836020036101000a031916815260200191505b50965050505050505060405180910390a150505050565b828054600181600116156101000203166002900490600052602060002090601f016020900481019282601f106104da57805160ff1916838001178555610508565b82800160010185558215610508579182015b828111156105075782518255916020019190600101906104ec565b5b5090506105159190610519565b5090565b61053b91905b8082111561053757600081600090555060010161051f565b5090565b9056fea165627a7a72305820a5e8b4d11347a16d8de8738af1ca10e10089126b18bb7c27e2cc6b291c541f350029",
  "source": "pragma solidity ^0.5.0;\n\ncontract DocumentFactory {\n    struct Document{\n        address hash;\n        string name;\n        string url;\n    }\n\n    event DocumentCreated(uint docId, address documentHash,string name,string url);\n\n    Document[] documents;\n    mapping (uint => address) documentToPublisher;\n    mapping (address => uint) ownerDocumentCount;\n    mapping (uint => address) documentToReceiver;\n\n    function createDocument(address _documentHash,string memory _name,string memory _url) public{\n        uint docId = documents.push(Document(_documentHash,_name,_url)) - 1;\n        documentToPublisher[docId] = msg.sender;\n        ownerDocumentCount[msg.sender] += 1;\n\n        emit DocumentCreated(docId,_documentHash,_name,_url);\n    }\n}\n",
  "sourcePath": "/home/shivamarora/certchain/contracts/DocumentFactory.sol",
  "compiler": {
    "name": "solc",
    "version": "0.5.0+commit.1d4f565a.Emscripten.clang"
  },
  "schemaVersion": "3.0.1",
  "updatedAt": "2019-01-10T09:54:15.511Z",
  "devdoc": {
    "methods": {}
  },
  "userdoc": {
    "methods": {}
  }
}