{
  "contractName": "DocumentTransfer",
  "abi": [
    {
      "constant": false,
      "inputs": [
        {
          "name": "_documentHash",
          "type": "address"
        },
        {
          "name": "_name",
          "type": "string"
        },
        {
          "name": "_url",
          "type": "string"
        }
      ],
      "name": "createDocument",
      "outputs": [],
      "payable": false,
      "stateMutability": "nonpayable",
      "type": "function",
      "signature": "0x3cf51bb3"
    },
    {
      "anonymous": false,
      "inputs": [
        {
          "indexed": false,
          "name": "_from",
          "type": "address"
        },
        {
          "indexed": false,
          "name": "_to",
          "type": "address"
        },
        {
          "indexed": false,
          "name": "_docId",
          "type": "uint256"
        }
      ],
      "name": "DocumentTransferred",
      "type": "event",
      "signature": "0xb6a2b86a4a372aa391ce5b6def153f9d88d518c36b6688a9aab5be59ee6840d8"
    },
    {
      "anonymous": false,
      "inputs": [
        {
          "indexed": false,
          "name": "docId",
          "type": "uint256"
        },
        {
          "indexed": false,
          "name": "documentHash",
          "type": "address"
        },
        {
          "indexed": false,
          "name": "name",
          "type": "string"
        },
        {
          "indexed": false,
          "name": "url",
          "type": "string"
        }
      ],
      "name": "DocumentCreated",
      "type": "event",
      "signature": "0x63d8dde1e374a130850ff7aef01122ac6b068a36da6d17a03462dc10d9e906a3"
    },
    {
      "constant": false,
      "inputs": [
        {
          "name": "_from",
          "type": "address"
        },
        {
          "name": "_to",
          "type": "address"
        },
        {
          "name": "_docId",
          "type": "uint256"
        }
      ],
      "name": "transferDocument",
      "outputs": [],
      "payable": false,
      "stateMutability": "nonpayable",
      "type": "function",
      "signature": "0x07e74028"
    }
  ],
  "bytecode": "0x608060405234801561001057600080fd5b50610735806100206000396000f3fe60806040526004361061004c576000357c0100000000000000000000000000000000000000000000000000000000900463ffffffff16806307e74028146100515780633cf51bb3146100cc575b600080fd5b34801561005d57600080fd5b506100ca6004803603606081101561007457600080fd5b81019080803573ffffffffffffffffffffffffffffffffffffffff169060200190929190803573ffffffffffffffffffffffffffffffffffffffff1690602001909291908035906020019092919050505061024b565b005b3480156100d857600080fd5b50610249600480360360608110156100ef57600080fd5b81019080803573ffffffffffffffffffffffffffffffffffffffff1690602001909291908035906020019064010000000081111561012c57600080fd5b82018360208201111561013e57600080fd5b8035906020019184600183028401116401000000008311171561016057600080fd5b91908080601f016020809104026020016040519081016040528093929190818152602001838380828437600081840152601f19601f820116905080830192505050505050509192919290803590602001906401000000008111156101c357600080fd5b8201836020820111156101d557600080fd5b803590602001918460018302840111640100000000831117156101f757600080fd5b91908080601f016020809104026020016040519081016040528093929190818152602001838380828437600081840152601f19601f820116905080830192505050505050509192919290505050610390565b005b816003600083815260200190815260200160002060006101000a81548173ffffffffffffffffffffffffffffffffffffffff021916908373ffffffffffffffffffffffffffffffffffffffff160217905550600260008373ffffffffffffffffffffffffffffffffffffffff1673ffffffffffffffffffffffffffffffffffffffff168152602001908152602001600020600081548092919060010191905055507fb6a2b86a4a372aa391ce5b6def153f9d88d518c36b6688a9aab5be59ee6840d8838383604051808473ffffffffffffffffffffffffffffffffffffffff1673ffffffffffffffffffffffffffffffffffffffff1681526020018373ffffffffffffffffffffffffffffffffffffffff1673ffffffffffffffffffffffffffffffffffffffff168152602001828152602001935050505060405180910390a1505050565b6000600160006060604051908101604052808773ffffffffffffffffffffffffffffffffffffffff168152602001868152602001858152509080600181540180825580915050906001820390600052602060002090600302016000909192909190915060008201518160000160006101000a81548173ffffffffffffffffffffffffffffffffffffffff021916908373ffffffffffffffffffffffffffffffffffffffff1602179055506020820151816001019080519060200190610456929190610664565b506040820151816002019080519060200190610473929190610664565b505050039050336001600083815260200190815260200160002060006101000a81548173ffffffffffffffffffffffffffffffffffffffff021916908373ffffffffffffffffffffffffffffffffffffffff1602179055506001600260003373ffffffffffffffffffffffffffffffffffffffff1673ffffffffffffffffffffffffffffffffffffffff168152602001908152602001600020600082825401925050819055507f63d8dde1e374a130850ff7aef01122ac6b068a36da6d17a03462dc10d9e906a381858585604051808581526020018473ffffffffffffffffffffffffffffffffffffffff1673ffffffffffffffffffffffffffffffffffffffff1681526020018060200180602001838103835285818151815260200191508051906020019080838360005b838110156105ba57808201518184015260208101905061059f565b50505050905090810190601f1680156105e75780820380516001836020036101000a031916815260200191505b50838103825284818151815260200191508051906020019080838360005b83811015610620578082015181840152602081019050610605565b50505050905090810190601f16801561064d5780820380516001836020036101000a031916815260200191505b50965050505050505060405180910390a150505050565b828054600181600116156101000203166002900490600052602060002090601f016020900481019282601f106106a557805160ff19168380011785556106d3565b828001600101855582156106d3579182015b828111156106d25782518255916020019190600101906106b7565b5b5090506106e091906106e4565b5090565b61070691905b808211156107025760008160009055506001016106ea565b5090565b9056fea165627a7a723058204fd60a14dcbf202c4aec70f9fa18fc96d160d68de88ece5e5472a0ad9a550d0f0029",
  "source": "pragma solidity ^0.5.0;\n\nimport \"./DocumentFactory.sol\";\n\ncontract DocumentTransfer is DocumentFactory{\n    event DocumentTransferred(address _from, address _to, uint _docId);\n\n    function transferDocument(address _from, address _to, uint _docId) public{\n        documentToReceiver[_docId] = _to;\n        ownerDocumentCount[_to]++;\n\n        emit DocumentTransferred(_from,_to,_docId);\n    }\n}\n",
  "sourcePath": "/home/shivamarora/certchain/contracts/DocumentTransfer.sol",
  "compiler": {
    "name": "solc",
    "version": "0.5.0+commit.1d4f565a.Emscripten.clang"
  },
  "schemaVersion": "3.0.1",
  "updatedAt": "2019-01-10T09:46:42.167Z",
  "devdoc": {
    "methods": {}
  },
  "userdoc": {
    "methods": {}
  }
}