{
  "contractName": "DocumentHelper",
  "abi": [
    {
      "constant": false,
      "inputs": [
        {
          "name": "_from",
          "type": "address"
        },
        {
          "name": "_to",
          "type": "address"
        },
        {
          "name": "_docId",
          "type": "uint256"
        }
      ],
      "name": "transferDocument",
      "outputs": [],
      "payable": false,
      "stateMutability": "nonpayable",
      "type": "function",
      "signature": "0x07e74028"
    },
    {
      "constant": false,
      "inputs": [
        {
          "name": "_documentHash",
          "type": "address"
        },
        {
          "name": "_name",
          "type": "string"
        },
        {
          "name": "_url",
          "type": "string"
        }
      ],
      "name": "createDocument",
      "outputs": [],
      "payable": false,
      "stateMutability": "nonpayable",
      "type": "function",
      "signature": "0x3cf51bb3"
    },
    {
      "anonymous": false,
      "inputs": [
        {
          "indexed": false,
          "name": "_from",
          "type": "address"
        },
        {
          "indexed": false,
          "name": "_to",
          "type": "address"
        },
        {
          "indexed": false,
          "name": "_docId",
          "type": "uint256"
        }
      ],
      "name": "DocumentTransferred",
      "type": "event",
      "signature": "0xb6a2b86a4a372aa391ce5b6def153f9d88d518c36b6688a9aab5be59ee6840d8"
    },
    {
      "anonymous": false,
      "inputs": [
        {
          "indexed": false,
          "name": "docId",
          "type": "uint256"
        },
        {
          "indexed": false,
          "name": "documentHash",
          "type": "address"
        },
        {
          "indexed": false,
          "name": "name",
          "type": "string"
        },
        {
          "indexed": false,
          "name": "url",
          "type": "string"
        }
      ],
      "name": "DocumentCreated",
      "type": "event",
      "signature": "0x63d8dde1e374a130850ff7aef01122ac6b068a36da6d17a03462dc10d9e906a3"
    },
    {
      "constant": true,
      "inputs": [
        {
          "name": "_owner",
          "type": "address"
        }
      ],
      "name": "getDocumentsReceived",
      "outputs": [
        {
          "name": "",
          "type": "uint256[]"
        }
      ],
      "payable": false,
      "stateMutability": "view",
      "type": "function",
      "signature": "0xb1d5126c"
    },
    {
      "constant": true,
      "inputs": [
        {
          "name": "_owner",
          "type": "address"
        }
      ],
      "name": "getDocumentsPublished",
      "outputs": [
        {
          "name": "",
          "type": "uint256[]"
        }
      ],
      "payable": false,
      "stateMutability": "view",
      "type": "function",
      "signature": "0x2bd6f632"
    },
    {
      "constant": true,
      "inputs": [
        {
          "name": "_owner",
          "type": "address"
        }
      ],
      "name": "getDocumentsUnpublished",
      "outputs": [
        {
          "name": "",
          "type": "uint256[]"
        }
      ],
      "payable": false,
      "stateMutability": "view",
      "type": "function",
      "signature": "0x9ad27526"
    },
    {
      "constant": true,
      "inputs": [
        {
          "name": "_id",
          "type": "uint256"
        }
      ],
      "name": "getDocument",
      "outputs": [
        {
          "name": "",
          "type": "address"
        },
        {
          "name": "",
          "type": "string"
        },
        {
          "name": "",
          "type": "string"
        }
      ],
      "payable": false,
      "stateMutability": "view",
      "type": "function",
      "signature": "0x3f9b250a"
    },
    {
      "constant": true,
      "inputs": [
        {
          "name": "_documentHash",
          "type": "address"
        }
      ],
      "name": "getDocumentByHash",
      "outputs": [
        {
          "name": "_hash",
          "type": "address"
        },
        {
          "name": "_name",
          "type": "string"
        },
        {
          "name": "_url",
          "type": "string"
        },
        {
          "name": "_publisher",
          "type": "address"
        },
        {
          "name": "_receiver",
          "type": "address"
        }
      ],
      "payable": false,
      "stateMutability": "view",
      "type": "function",
      "signature": "0xf80bd5b4"
    }
  ],
  "bytecode": "0x608060405234801561001057600080fd5b506115f2806100206000396000f3fe608060405260043610610083576000357c0100000000000000000000000000000000000000000000000000000000900463ffffffff16806307e74028146100885780632bd6f632146101035780633cf51bb3146101a95780633f9b250a146103285780639ad275261461047b578063b1d5126c14610521578063f80bd5b4146105c7575b600080fd5b34801561009457600080fd5b50610101600480360360608110156100ab57600080fd5b81019080803573ffffffffffffffffffffffffffffffffffffffff169060200190929190803573ffffffffffffffffffffffffffffffffffffffff16906020019092919080359060200190929190505050610796565b005b34801561010f57600080fd5b506101526004803603602081101561012657600080fd5b81019080803573ffffffffffffffffffffffffffffffffffffffff1690602001909291905050506108db565b6040518080602001828103825283818151815260200191508051906020019060200280838360005b8381101561019557808201518184015260208101905061017a565b505050509050019250505060405180910390f35b3480156101b557600080fd5b50610326600480360360608110156101cc57600080fd5b81019080803573ffffffffffffffffffffffffffffffffffffffff1690602001909291908035906020019064010000000081111561020957600080fd5b82018360208201111561021b57600080fd5b8035906020019184600183028401116401000000008311171561023d57600080fd5b91908080601f016020809104026020016040519081016040528093929190818152602001838380828437600081840152601f19601f820116905080830192505050505050509192919290803590602001906401000000008111156102a057600080fd5b8201836020820111156102b257600080fd5b803590602001918460018302840111640100000000831117156102d457600080fd5b91908080601f016020809104026020016040519081016040528093929190818152602001838380828437600081840152601f19601f820116905080830192505050505050509192919290505050610a0c565b005b34801561033457600080fd5b506103616004803603602081101561034b57600080fd5b8101908080359060200190929190505050610ce0565b604051808473ffffffffffffffffffffffffffffffffffffffff1673ffffffffffffffffffffffffffffffffffffffff1681526020018060200180602001838103835285818151815260200191508051906020019080838360005b838110156103d75780820151818401526020810190506103bc565b50505050905090810190601f1680156104045780820380516001836020036101000a031916815260200191505b50838103825284818151815260200191508051906020019080838360005b8381101561043d578082015181840152602081019050610422565b50505050905090810190601f16801561046a5780820380516001836020036101000a031916815260200191505b509550505050505060405180910390f35b34801561048757600080fd5b506104ca6004803603602081101561049e57600080fd5b81019080803573ffffffffffffffffffffffffffffffffffffffff169060200190929190505050610ed5565b6040518080602001828103825283818151815260200191508051906020019060200280838360005b8381101561050d5780820151818401526020810190506104f2565b505050509050019250505060405180910390f35b34801561052d57600080fd5b506105706004803603602081101561054457600080fd5b81019080803573ffffffffffffffffffffffffffffffffffffffff169060200190929190505050611071565b6040518080602001828103825283818151815260200191508051906020019060200280838360005b838110156105b3578082015181840152602081019050610598565b505050509050019250505060405180910390f35b3480156105d357600080fd5b50610616600480360360208110156105ea57600080fd5b81019080803573ffffffffffffffffffffffffffffffffffffffff1690602001909291905050506111a2565b604051808673ffffffffffffffffffffffffffffffffffffffff1673ffffffffffffffffffffffffffffffffffffffff16815260200180602001806020018573ffffffffffffffffffffffffffffffffffffffff1673ffffffffffffffffffffffffffffffffffffffff1681526020018473ffffffffffffffffffffffffffffffffffffffff1673ffffffffffffffffffffffffffffffffffffffff168152602001838103835287818151815260200191508051906020019080838360005b838110156106f05780820151818401526020810190506106d5565b50505050905090810190601f16801561071d5780820380516001836020036101000a031916815260200191505b50838103825286818151815260200191508051906020019080838360005b8381101561075657808201518184015260208101905061073b565b50505050905090810190601f1680156107835780820380516001836020036101000a031916815260200191505b5097505050505050505060405180910390f35b816003600083815260200190815260200160002060006101000a81548173ffffffffffffffffffffffffffffffffffffffff021916908373ffffffffffffffffffffffffffffffffffffffff160217905550600260008373ffffffffffffffffffffffffffffffffffffffff1673ffffffffffffffffffffffffffffffffffffffff168152602001908152602001600020600081548092919060010191905055507fb6a2b86a4a372aa391ce5b6def153f9d88d518c36b6688a9aab5be59ee6840d8838383604051808473ffffffffffffffffffffffffffffffffffffffff1673ffffffffffffffffffffffffffffffffffffffff1681526020018373ffffffffffffffffffffffffffffffffffffffff1673ffffffffffffffffffffffffffffffffffffffff168152602001828152602001935050505060405180910390a1505050565b606080600260008473ffffffffffffffffffffffffffffffffffffffff1673ffffffffffffffffffffffffffffffffffffffff1681526020019081526020016000205460405190808252806020026020018201604052801561094c5781602001602082028038833980820191505090505b509050600080905060008090505b600080549050811015610a01578473ffffffffffffffffffffffffffffffffffffffff166001600083815260200190815260200160002060009054906101000a900473ffffffffffffffffffffffffffffffffffffffff1673ffffffffffffffffffffffffffffffffffffffff1614156109f4578083838151811015156109dd57fe5b906020019060200201818152505081806001019250505b808060010191505061095a565b508192505050919050565b6000600160006060604051908101604052808773ffffffffffffffffffffffffffffffffffffffff168152602001868152602001858152509080600181540180825580915050906001820390600052602060002090600302016000909192909190915060008201518160000160006101000a81548173ffffffffffffffffffffffffffffffffffffffff021916908373ffffffffffffffffffffffffffffffffffffffff1602179055506020820151816001019080519060200190610ad29291906114e9565b506040820151816002019080519060200190610aef9291906114e9565b505050039050336001600083815260200190815260200160002060006101000a81548173ffffffffffffffffffffffffffffffffffffffff021916908373ffffffffffffffffffffffffffffffffffffffff1602179055506001600260003373ffffffffffffffffffffffffffffffffffffffff1673ffffffffffffffffffffffffffffffffffffffff168152602001908152602001600020600082825401925050819055507f63d8dde1e374a130850ff7aef01122ac6b068a36da6d17a03462dc10d9e906a381858585604051808581526020018473ffffffffffffffffffffffffffffffffffffffff1673ffffffffffffffffffffffffffffffffffffffff1681526020018060200180602001838103835285818151815260200191508051906020019080838360005b83811015610c36578082015181840152602081019050610c1b565b50505050905090810190601f168015610c635780820380516001836020036101000a031916815260200191505b50838103825284818151815260200191508051906020019080838360005b83811015610c9c578082015181840152602081019050610c81565b50505050905090810190601f168015610cc95780820380516001836020036101000a031916815260200191505b50965050505050505060405180910390a150505050565b6000606080610ced611569565b600085815481101515610cfc57fe5b9060005260206000209060030201606060405190810160405290816000820160009054906101000a900473ffffffffffffffffffffffffffffffffffffffff1673ffffffffffffffffffffffffffffffffffffffff1673ffffffffffffffffffffffffffffffffffffffff168152602001600182018054600181600116156101000203166002900480601f016020809104026020016040519081016040528092919081815260200182805460018160011615610100020316600290048015610e055780601f10610dda57610100808354040283529160200191610e05565b820191906000526020600020905b815481529060010190602001808311610de857829003601f168201915b50505050508152602001600282018054600181600116156101000203166002900480601f016020809104026020016040519081016040528092919081815260200182805460018160011615610100020316600290048015610ea75780601f10610e7c57610100808354040283529160200191610ea7565b820191906000526020600020905b815481529060010190602001808311610e8a57829003601f168201915b5050505050815250509050806000015181602001518260400151819150809050935093509350509193909250565b606080600260008473ffffffffffffffffffffffffffffffffffffffff1673ffffffffffffffffffffffffffffffffffffffff16815260200190815260200160002054604051908082528060200260200182016040528015610f465781602001602082028038833980820191505090505b509050600080905060008090505b600080549050811015611066578473ffffffffffffffffffffffffffffffffffffffff166001600083815260200190815260200160002060009054906101000a900473ffffffffffffffffffffffffffffffffffffffff1673ffffffffffffffffffffffffffffffffffffffff1614801561102e5750600073ffffffffffffffffffffffffffffffffffffffff166003600083815260200190815260200160002060009054906101000a900473ffffffffffffffffffffffffffffffffffffffff1673ffffffffffffffffffffffffffffffffffffffff16145b156110595780838381518110151561104257fe5b906020019060200201818152505081806001019250505b8080600101915050610f54565b508192505050919050565b606080600260008473ffffffffffffffffffffffffffffffffffffffff1673ffffffffffffffffffffffffffffffffffffffff168152602001908152602001600020546040519080825280602002602001820160405280156110e25781602001602082028038833980820191505090505b509050600080905060008090505b600080549050811015611197578473ffffffffffffffffffffffffffffffffffffffff166003600083815260200190815260200160002060009054906101000a900473ffffffffffffffffffffffffffffffffffffffff1673ffffffffffffffffffffffffffffffffffffffff16141561118a5780838381518110151561117357fe5b906020019060200201818152505081806001019250505b80806001019150506110f0565b508192505050919050565b600060608060008060008090505b6000805490508110156114a5578673ffffffffffffffffffffffffffffffffffffffff166000828154811015156111e357fe5b906000526020600020906003020160000160009054906101000a900473ffffffffffffffffffffffffffffffffffffffff1673ffffffffffffffffffffffffffffffffffffffff16141561149857611239611569565b60008281548110151561124857fe5b9060005260206000209060030201606060405190810160405290816000820160009054906101000a900473ffffffffffffffffffffffffffffffffffffffff1673ffffffffffffffffffffffffffffffffffffffff1673ffffffffffffffffffffffffffffffffffffffff168152602001600182018054600181600116156101000203166002900480601f0160208091040260200160405190810160405280929190818152602001828054600181600116156101000203166002900480156113515780601f1061132657610100808354040283529160200191611351565b820191906000526020600020905b81548152906001019060200180831161133457829003601f168201915b50505050508152602001600282018054600181600116156101000203166002900480601f0160208091040260200160405190810160405280929190818152602001828054600181600116156101000203166002900480156113f35780601f106113c8576101008083540402835291602001916113f3565b820191906000526020600020905b8154815290600101906020018083116113d657829003601f168201915b505050505081525050905060006001600084815260200190815260200160002060009054906101000a900473ffffffffffffffffffffffffffffffffffffffff16905060006003600085815260200190815260200160002060009054906101000a900473ffffffffffffffffffffffffffffffffffffffff169050826000015183602001518460400151848483935082925098509850985098509850505050506114e0565b80806001019150506111b0565b506000809050808182602060405190810160405280600081525091906020604051908101604052806000815250919095509550955095509550505b91939590929450565b828054600181600116156101000203166002900490600052602060002090601f016020900481019282601f1061152a57805160ff1916838001178555611558565b82800160010185558215611558579182015b8281111561155757825182559160200191906001019061153c565b5b50905061156591906115a1565b5090565b606060405190810160405280600073ffffffffffffffffffffffffffffffffffffffff16815260200160608152602001606081525090565b6115c391905b808211156115bf5760008160009055506001016115a7565b5090565b9056fea165627a7a72305820846aeb51cc94abebbda533990f7fe0bb00f41c436eb801b361a6bf88d34037930029",
  "source": "pragma solidity ^0.5.0;\n\nimport \"./DocumentTransfer.sol\";\n\ncontract DocumentHelper is DocumentTransfer {\n    function getDocumentsReceived(address _owner) public view returns(uint[] memory) {\n        uint[] memory result = new uint[](ownerDocumentCount[_owner]);\n        uint counter = 0;\n        for(uint i=0;i<documents.length;i++){\n            if(documentToReceiver[i] == _owner){\n                result[counter] = i;\n                counter++;\n            }\n        }\n\n        return result;\n    }\n\n    function getDocumentsPublished(address _owner) public view returns(uint[] memory){\n        uint[] memory result = new uint[](ownerDocumentCount[_owner]);\n        uint counter = 0;\n        for(uint i=0;i<documents.length;i++){\n            if(documentToPublisher[i] == _owner){\n                result[counter] = i;\n                counter++;\n            }\n        }\n\n        return result;\n    }\n\n    function getDocumentsUnpublished(address _owner) public view returns(uint[] memory){\n        uint[] memory result = new uint[](ownerDocumentCount[_owner]);\n        uint counter = 0;\n        for(uint i = 0; i<documents.length;i++){\n            if(documentToPublisher[i]==_owner && documentToReceiver[i]==address(0) ){\n                result[counter] = i;\n                counter++;\n            }\n        }\n\n        return result;\n    }\n\n    function getDocument(uint _id) public view returns(address,string memory,string memory  ){\n        Document memory doc = documents[_id];\n        return (doc.hash,doc.name,doc.url);\n    }\n\n    function getDocumentByHash(address _documentHash) public view returns(address _hash,string memory _name,string memory _url,address _publisher,address _receiver){\n        for(uint i=0; i<documents.length;i++){\n            if(documents[i].hash==_documentHash){\n                Document memory doc = documents[i];\n                address publisher = documentToPublisher[i];\n                address receiver = documentToReceiver[i];\n                return (doc.hash,doc.name,doc.url,publisher,receiver);\n            }\n        }\n\n        address emptyAddress = address(0);\n        return (emptyAddress,\"\",\"\",emptyAddress,emptyAddress);\n    }\n}\n",
  "sourcePath": "/home/shivamarora/certchain/contracts/DocumentHelper.sol",
  "compiler": {
    "name": "solc",
    "version": "0.5.0+commit.1d4f565a.Emscripten.clang"
  },
  "schemaVersion": "3.0.1",
  "updatedAt": "2019-01-10T10:30:02.393Z",
  "devdoc": {
    "methods": {}
  },
  "userdoc": {
    "methods": {}
  }
}